:020000040800F2
:10000000FFFF0120CD450008E92A0008F52A000875
:10001000FD2A0008052B00080D2B00080000000039
:10002000000000000000000000000000152B000888
:10003000212B0008000000002D2B0008392B0008A0
:100040001D4600081D4600081D4600081D46000804
:100050001D4600081D4600081D4600081D460008F4
:100060001D4600081D4600081D4600081D460008E4
:100070001D4600081D4600081D4600081D460008D4
:100080001D4600081D4600081D4600081D460008C4
:100090001D4600081D4600081D4600081D460008B4
:1000A0001D4600081D4600081D4600081D460008A4
:1000B0001D4600081D4600081D4600081D46000894
:1000C0001D4600081D4600081D4600081D46000884
:1000D0001D4600081D4600081D4600081D46000874
:1000E0001D4600081D4600081D4600081D46000864
:1000F0001D4600081D4600081D4600081D46000854
:100100001D4600081D4600081D4600081D46000843
:100110001D4600081D4600081D4600081D46000833
:100120001D4600081D4600081D4600081D46000823
:100130001D460008F54100081D4600081D46000840
:100140001D4600081D4600081D4600081D46000803
:100150001D4600081D4600081D4600081D460008F3
:100160001D4600081D4600081D4600081D460008E3
:100170001D4600081D4600081D460008000000003E
:080180001D4600081D460008A1
:1001880010B5054C237833B9044B13B10448AFF3C9
:1001980000800123237010BD4804002000000000E7
:1001A80020460008084B10B51BB108480849AFF3B2
:1001B80000800848036803B910BD074B002BFBD02B
:1001C800BDE81040184700BF0000000020460008A6
:1001D8004C040020480400200000000080B586B0D0
:1001E80000AF0F4A0E4B1B6B43F0010313630C4B1C
:1001F8001B6B03F001033B603B6802237B61002318
:10020800BB6001237B600023FB6003233B613B1D34
:100218000448194602F092FC1837BD4680BD00BF5D
:10022800003802400000024080B586B000AF0F4A97
:100238000E4B1B6B43F0080313630C4B1B6B03F053
:1002480008033B603B6802237B610123BB604FF4DA
:1002580080537B600023FB6003233B613B1D044804
:10026800194602F06BFC1837BD4680BD00380240C5
:10027800000C024080B586B000AF0F4A0E4B1B6BD6
:1002880043F0080313630C4B1B6B03F008033B603C
:100298003B6802237B610123BB604FF400537B6002
:1002A8000023FB6003233B613B1D0448194602F011
:1002B80045FC1837BD4680BD00380240000C02409E
:1002C80080B586B000AF0F4A0E4B1B6B43F0080396
:1002D80013630C4B1B6B03F008033B603B68022362
:1002E8007B610123BB604FF480437B600023FB608C
:1002F80003233B613B1D0448194602F01FFC1837D5
:10030800BD4680BD00380240000C024080B586B072
:1003180000AF0F4A0E4B1B6B43F0080313630C4BE3
:100328001B6B03F008033B603B6802237B610123DE
:10033800BB604FF400437B600023FB6003233B61F9
:100348003B1D0448194602F0F9FB1837BD4680BD2D
:1003580000380240000C024080B400AF0B4B1B6811
:100368005A1C0A490A60B3F57A7F07D3074B002263
:100378001A60074B1B680133054A1360044B1B685E
:100388001846BD465DF8047B704700BF680400202E
:100398006C04002080B582B000AF78603960FFF748
:1003A800DBFF0246074B1A60064B1A683B68D21AF5
:1003B8007B689A4201D2002300E0012318460837DF
:1003C800BD4680BD6404002080B500AF304B1B786B
:1003D800012B21D0022B3DD0002B58D12D484FF4B2
:1003E8008051012202F060FE2A484FF48041012228
:1003F80002F05AFE284B1B680A201946FFF7CAFF6D
:100408000346002B07D0224B01221A70234B1B688E
:10041800214A13603BE03AE01E484FF48051012224
:1004280002F042FE1B484FF48041012202F03CFEDC
:10043800194B1B680A201946FFF7ACFF0346002B2F
:1004480007D0134B02221A70144B1B68124A136010
:100458001DE01CE00F484FF48051002202F024FEFA
:100468000C484FF48041002202F01EFE0A4B1B6824
:100478000A201946FFF78EFF0346002B06D0044BCF
:1004880000221A70054B1B68034A136000BF80BD29
:1004980070040020000C0240740400206404002052
:1004A80080B500AF3348012102F0E6FD0346012B79
:1004B80003D1314B05221A6002E02F4B14221A6037
:1004C8002E4B1B78012B1ED0022B37D0002B4FD17F
:1004D800294B1B681A462A4B1B6810461946FFF71A
:1004E80059FF0346002B0DD026484FF40051012236
:1004F80002F0DAFD214B01221A70234B1B68204AB7
:10050800136035E034E01C4B1B681A461C4B1B6813
:1005180010461946FFF73EFF0346002B0DD0194839
:100528004FF40051012202F0BFFD144B02221A7051
:10053800154B1B68124A13601AE019E00E4B1B6832
:100548001A460F4B1B6810461946FFF723FF034650
:10055800002B0CD00B484FF40051002202F0A4FDF0
:10056800064B00221A70084B1B68054A136000BF2F
:1005780080BD00BF00000240000000207804002079
:100588007C040020000C02406404002080B500AF09
:100598003A48012102F070FD0346012B06D1384B81
:1005A80005221A60374B05221A6002E0344B1422E8
:1005B8001A60354B1B78012B1ED0022B43D0002B21
:1005C8005BD12F4B1B681A46304B1B6810461946E7
:1005D800FFF7E0FE0346002B0DD02D484FF40041F5
:1005E800002202F061FD284B01221A70294B1B687A
:1005F800264A136041E040E0214B1B681A46234B12
:100608001B6810461946FFF7C5FE0346002B11D09C
:100618001F484FF40041002202F046FD194B1B68A9
:10062800013B184A1360184B02221A70194B1B68B9
:10063800164A1360134B1B68002B03D1124B002280
:100648001A701AE019E00E4B1B681A460F4B1B680C
:1006580010461946FFF79EFE0346002B0CD00C48A7
:100668004FF40041012202F01FFD074B00221A70CF
:10067800084B1B68054A136000BF80BD000002409C
:100688000400002080040020840400208804002046
:10069800000C02406404002080B582B000AF78608E
:1006A8007B681B68FE2B23D040F2031293423ED096
:1006B800002B59D12E484FF48051012202F0F4FC4E
:1006C8002B484FF48041012202F0EEFC294B1B68B5
:1006D8000A201946FFF75EFE0346002B07D0264B7B
:1006E8001B68244A13607B68FE221A603CE03BE0EA
:1006F8001F484FF48051012202F0D6FC1C484FF4E9
:100708008041012202F0D0FC1A4B1B680A201946CE
:10071800FFF740FE0346002B08D0174B1B68154A0D
:1007280013607B6840F203121A601DE01CE0104859
:100738004FF48051002202F0B7FC0D484FF480417D
:10074800002202F0B1FC0B4B1B680A201946FFF788
:1007580021FE0346002B06D0074B1B68054A136091
:100768007B6800221A6000BF0837BD4680BD00BF05
:10077800000C02408C0400206404002080B582B084
:1007880000AF78603648012102F076FC0346012B61
:1007980003D1344B05221A6002E0324B14221A604E
:1007A8007B681B6840F21F12934220D0B3F5937FF9
:1007B80039D0002B51D12B4B1B681A462A4B1B688A
:1007C80010461946FFF7E6FD0346002B0ED02748D2
:1007D8004FF40051012202F067FC254B1B68224AA6
:1007E80013607B6840F21F121A6036E035E01D4B3B
:1007F8001B681A461C4B1B6810461946FFF7CAFDB2
:100808000346002B0ED019484FF40051012202F084
:100818004BFC174B1B68144A13607B684FF49372A8
:100828001A601AE019E00F4B1B681A460E4B1B683A
:1008380010461946FFF7AEFD0346002B0CD00B48B7
:100848004FF40051002202F02FFC094B1B68064AA6
:1008580013607B6800221A6000BF0837BD4680BD60
:10086800000002400000002090040020000C02401C
:100878006404002080B582B000AF78603B48012155
:1008880002F0FAFB0346012B05D1394B14221A60FA
:10089800384B05221A607B681B68B3F5A17F20D00E
:1008A800B3F5A77F45D0002B5DD1314B1B681A46A5
:1008B800314B1B6810461946FFF76CFD0346002BA9
:1008C8000ED02E484FF40041002202F0EDFB2C4BD5
:1008D8001B68294A13607B684FF4A1721A6042E0D2
:1008E80041E0244B1B68002B02D17B6800221A6070
:1008F8001F4B1B681A46204B1B6810461946FFF70A
:1009080049FD0346002B13D01C484FF40041002238
:1009180002F0CAFB174B1B68013B164A1360184BC1
:100928001B68154A13607B684FF4A7721A601AE0B7
:1009380019E00F4B1B681A460F4B1B6810461946E7
:10094800FFF728FD0346002B0CD00C484FF400415C
:10095800012202F0A9FB0A4B1B68074A13607B6857
:1009680000221A6000BF0837BD4680BD0000024063
:10097800000000209404002098040020000C02408D
:100988006404002080B582B000AF78609C480121E3
:1009980002F072FB0346012B40F0C2807B681B68A3
:1009A80040F2611293423AD0B3F5B17F02D2002BE4
:1009B8000AD021E140F2651293425BD040F26912FD
:1009C800934200F0828017E18E484FF48051012253
:1009D80002F06AFB8B484FF40051002202F064FBDE
:1009E80088484FF48041002202F05EFB85484FF4AE
:1009F8000041012202F058FB834B1B680520194671
:100A0800FFF7C8FC0346002B08D0804B1B687E4AC2
:100A180013607B6840F261121A6080E07FE07948D9
:100A28004FF48051002202F03FFB76484FF400510A
:100A3800012202F039FB73484FF48041002202F092
:100A480033FB70484FF40041012202F02DFB6E4B3E
:100A58001B6805201946FFF79DFC0346002B08D0AC
:100A68006A4B1B68684A13607B6840F265121A601B
:100A780055E054E063484FF48051002202F014FB23
:100A880060484FF40051002202F00EFB5D484FF41D
:100A98008041012202F008FB5A484FF4004101222C
:100AA80002F002FB584B1B6805201946FFF772FC41
:100AB8000346002B08D0554B1B68534A13607B68CC
:100AC80040F269121A602AE029E04E484FF480513A
:100AD800002202F0E9FA4B484FF40051002202F0DC
:100AE800E3FA48484FF48041002202F0DDFA454815
:100AF8004FF40041002202F0D7FA434B1B6805204F
:100B08001946FFF747FC0346002B07D03F4B1B68ED
:100B18003D4A13607B6800221A60FFE700BF6BE064
:100B28007B681B68B3F5BA7F2AD040F277129342EC
:100B380045D0002B60D133484FF40041002202F029
:100B4800B3FA30484FF48051012202F0ADFA2D4833
:100B58004FF40051002202F0A7FA2B4B1B680A2021
:100B68001946FFF717FC0346002B08D0274B1B68D4
:100B7800254A13607B684FF4BA721A603CE03BE088
:100B880020484FF48051012202F08EFA1D484FF49C
:100B98000051002202F088FA1B4B1B680A201946F4
:100BA800FFF7F8FB0346002B08D0184B1B68164AC2
:100BB80013607B6840F277121A601DE01CE0114850
:100BC8004FF48051002202F06FFA0E484FF40051A2
:100BD800012202F069FA0C4B1B680A201946FFF73C
:100BE800D9FB0346002B06D0084B1B68064A136046
:100BF8007B6800221A6000BF0837BD4680BD00BF71
:100C080000000240000C02409C0400206404002004
:100C180080B588B000AF78600023FB610023FB60DB
:100C2800AA4BBB6100237B6100233B617B68002BDF
:100C380001D1012367E17B6893F84430DBB2002BD4
:100C480006D17B68002283F84520786803F02CFAE7
:100C58009F4A9F4B5B6C43F4804353649C4B5B6C93
:100C680003F48043BB60BB689A4A9A4B5B6823F4E1
:100C7800000353609749974B5A687B681B6A134374
:100C88004B607B681B687A68126802F580521268AC
:100C980042F0010203F580531A6000BF7B681B68AD
:100CA80003F580531B6803F00103002BF6D17B6822
:100CB8001B681B69FB61FB6923F01C03FB6102F0E5
:100CC80093FFB861BB69844A934208D9BB69834AD8
:100CD800934204D8FB6943F00803FB6126E0BB6933
:100CE8007E4A934208D9BB697D4A934204D8FB697E
:100CF80043F00C03FB6119E0BB69794A934204D9BC
:100D0800BB69784A934200D810E0BB69754A9342A0
:100D180008D9BB69744A934204D8FB6943F00403B9
:100D2800FB6103E0FB6943F01003FB617B681B6810
:100D3800FA691A61786800214FF4004200F0D2FC89
:100D48000346002B0BD001233B617868396900F01A
:100D580025FF7B68012283F844200123D3E07B68C8
:100D68005B68002B00F0948001F0C6FD786107F104
:100D78000C03786801211A4600F04CFC01F0BCFD18
:100D880002467B69D31AB3F5FA6F0FD901233B6189
:100D98007868396900F002FF7B68012283F84420F3
:100DA8007B68002283F845200323ACE0FB6803F04E
:100DB8000403002BDBD0786800214FF4805200F048
:100DC80091FC0346002B0BD001233B6178683969FD
:100DD80000F0E4FE7B68012283F84420012392E0BE
:100DE80001F08AFD786107F10C03786801211A4641
:100DF80000F010FC01F080FD02467B69D31AB3F5C0
:100E08007A7F0FD901233B617868396900F0C6FE03
:100E18007B68012283F844207B68002283F8452000
:100E2800032370E0FB6803F02003002BDBD007F1FD
:100E38000C03786810211A4600F0ECFB0346002BDF
:100E48000BD001233B617868396900F0A7FE7B6805
:100E5800012283F84420012355E0FB6803F00403D2
:100E6800002B04D07B684FF40062DA6002E07B68F4
:100E78000022DA60FB6803F00203002B03D07B68D2
:100E880000229A6036E07B684FF480429A6031E035
:100E98007B68DB68DB089AB27B689B685B089BB25F
:100EA80013439BB2786800211A4600F01BFC0346E6
:100EB800002B1BD001233B617868396900F06EFE76
:100EC8007B68012283F8442001231CE000879303F8
:100ED8000038024000380140FF2C3101BF0E1602D5
:100EE800FF869303FFE0F5057FD1F00840F6FF7019
:100EF80001F00EFD7868396900F050FE7B68012228
:100F080083F84420002318462037BD4680BD00BF23
:100F180080B582B000AF78607B68022283F84420F5
:100F2800786803F02DF97B68002283F844207B68F9
:100F3800002283F84520002318460837BD4680BDA7
:100F480080B487B000AFF860B9607A603B60002376
:100F58007B61FB6893F84530012B01D1022352E0F5
:100F6800FB68012283F84520FB68022283F84420AD
:100F7800FB68BA68DA6200237B6130E07B695B0159
:100F8800BA6813443B613B694FF480121A607B696D
:100F980040F2F45202FB03F37A6813441A463B69A1
:100FA8009A60FB68DB69002B05D13B691B6843F439
:100FB80040023B691A603B685A1E7B699A4208D90D
:100FC8007B6901335B01BA6813441A463B69DA60EE
:100FD80002E0BA683B69DA607B6901337B617A6950
:100FE8003B689A42CAD3FB681B68BA6803F580530A
:100FF80010331A60FB68012283F84420FB68002242
:1010080083F84520002318461C37BD465DF8047B4D
:10101800704700BF80B487B000AFF860B9607A60ED
:101028003B6000237B61FB6893F84530012B01D1BD
:10103800022356E0FB68012283F84520FB68022260
:1010480083F84420FB68BA689A6200237B6134E025
:101058007B695B01BA6813443B613B694FF000420E
:101068001A603B6944F2F4525A607B6940F2F452C8
:1010780002FB03F37A6813441A463B699A60FB68DB
:101088009B69012B05D13B695B6823F000423B69F2
:101098005A603B685A1E7B699A4208D97B690133BA
:1010A8005B01BA6813441A463B69DA6002E0BA6821
:1010B8003B69DA607B6901337B617A693B689A42F4
:1010C800C6D3FB681B68BA6803F580530C331A60F3
:1010D800FB68012283F84420FB68002283F845203E
:1010E800002318461C37BD465DF8047B704700BFD7
:1010F80080B483B000AF78600C37BD465DF8047BE0
:10110800704700BF80B483B000AF78600C37BD462D
:101118005DF8047B704700BF80B487B000AF78608B
:10112800396000237B610023FB6000233B617B68FF
:1011380093F84530012B01D10223CDE07B680122D1
:1011480083F845207B68022283F844203B68002B03
:1011580009D17B68012283F844207B68002283F848
:1011680045200123B8E07B68DB6A1B68002B09DA9D
:101178007B68122283F844207B68002283F845208C
:101188000123A9E03B6840F2F452934215D93B6829
:10119800544AA2FB03239B0A7B613A68514BA3FB89
:1011A80002139B0A40F2F45101FB03F3D31A002BFC
:1011B80005D07B6901337B6101E001237B617B6999
:1011C800012B1CD17B68DB6A7A68D26A126842F00C
:1011D80040521A607B68DB6A3A68C2F30C025A60B4
:1011E8007B68DB6A7A68D26A126842F000421A6049
:1011F8007B68DB6ADB681A467B68DA624BE00023AF
:101208003B6144E07B68DB6A7A68D26A126822F044
:1012180040521A603B69002B07D17B68DB6A7A6809
:10122800D26A126842F080521A607B68DB6A40F228
:10123800F4525A607B695A1E3B699A4216D17B6800
:10124800DB6A7A68D26A126842F000521A607B69D7
:10125800254A02FB03F23B68134403F2F453FB6094
:101268007B68DB6AFA68C2F30C025A607B68DB6A47
:101278007A68D26A126842F000421A607B68DB6AB8
:10128800DB681A467B68DA623B6901333B613A697D
:101298007B699A42B6D37B681B6803F58053143385
:1012A8001B6803F00403002B0DD07B681B6803F553
:1012B8008053143304221A607B681B6803F580533B
:1012C800043300221A607B68012283F844207B687B
:1012D800002283F84520002318461C37BD465DF8D8
:1012E800047B70470BB002AC0CFAFFFF80B485B0EA
:1012F80000AF78600023FB607B6893F84530012BD2
:1013080001D1022370E07B68012283F845207B68C5
:10131800022283F844207B689B6A1B68002B5ADBF7
:101328007B689B6A1B6803F48073002B30D07B6852
:101338009B6B5A1C7B689A637B689B6B012B03D160
:101348007B689A6A7B681A637B689A6A7B685A63C7
:101358007B689B6A1A68274B13401B0C043BFB6095
:101368007B68FA68DA637B681B6B9A687B681A6427
:101378007B689B6ADB681A467B689A627B680122F5
:1013880083F844207B68002283F8452000232BE063
:101398007B689B6A1B6803F40073002B10D07B6882
:1013A8009A6A7B681A637B6800225A637B68012209
:1013B8009A637B689B6ADB681A467B689A620AE0D4
:1013C8007B689B6B5A1C7B689A637B689B6ADB68AB
:1013D8001A467B689A627B68012283F844207B68FE
:1013E800002283F84520012318461437BD465DF8CE
:1013F800047B70470000FF3F80B485B000AF786081
:101408000023FB607B6893F84530012B01D1022350
:1014180074E07B68012283F845207B68022283F808
:1014280044205AE0FB680133FB607B689B6A1B68B9
:1014380003F44073B3F5007F0DD17B689A6A7B682B
:101448001A637B6801229A637B689B6ADB681A4689
:101458007B689A6241E07B689B6A1B6803F440736F
:10146800002B0BD17B689B6B5A1C7B689A637B684B
:101478009B6ADB681A467B689A622EE07B689A6AE8
:101488007B685A637B689B6B5A1C7B689A637B6892
:101498009B6B012B03D17B689A6A7B681A637B6814
:1014A8009B6A1A68184B13401B0C1A1F7B68DA6377
:1014B8007B681B6B9A687B681A647B689B6ADB682D
:1014C8001A467B689A627B68012283F844207B680D
:1014D800002283F84520002310E07B689B6A1B6884
:1014E800002B02DBFB68032B9CD97B68012283F865
:1014F80044207B68002283F84520012318461437CE
:10150800BD465DF8047B70470000FF3F80B582B0A0
:1015180000AF78607B681B6803F5805314331B6841
:1015280003F04003002B12D0786800F05FF87B6866
:101538001B6803F58053143340221A607B6801222C
:1015480083F844207B68002283F845201BE07B68F1
:101558001B6803F5805314331B6803F00103002B49
:1015680011D0786800F038F87B681B6803F5805361
:10157800143301221A607B68012283F844207B68B7
:10158800002283F845207B681B6803F580531433D9
:101598004FF480321A607B681B6803F5805314335C
:1015A8001B6803F40043002B12D0786800F028F879
:1015B8007B681B6803F5805314334FF400421A60AC
:1015C8007B68012283F844207B68002283F8452049
:1015D8000837BD4680BD00BF80B483B000AF7860D7
:1015E8000C37BD465DF8047B704700BF80B483B0FC
:1015F80000AF78600C37BD465DF8047B704700BFCC
:1016080080B483B000AF78600C37BD465DF8047BCA
:10161800704700BF80B586B000AFF8600B467A60AF
:101628007B8100237B6100233B61FB6893F8443096
:10163800DBB2822B01D1022350E0FB68822283F8BF
:101648004420FB681B681B697B617B6903F01C03F2
:101658007B61FB681B8ADB029BB27A6913437B615F
:101668007B899B0103F4F8637A6913437B617B6987
:1016780023F002037B617B6943F001037B61FB6814
:101688001B687A691A6101F037F9386115E001F0D1
:1016980033F902463B69D31AB3F5803F09D3FB6897
:1016A800012283F84420FB68002283F845200323A5
:1016B80014E0FB681B681B697B617B6903F001030D
:1016C800002BE4D1FB681B685B699BB21A467B68F8
:1016D8001A60FB68012283F8442000231846183753
:1016E800BD4680BD80B586B000AFF8600B467A6015
:1016F8007B8100237B6100233B61FB6893F84430C6
:10170800DBB2422B01D102234EE0FB68422283F870
:101718004420FB681B681B697B617B6903F01C0321
:101728007B61FB681B8ADB029BB27A6913437B618E
:101738007B899B0103F4F8637A6913437B617B69B6
:1017480043F002037B617B6943F001037B61FB6823
:101758001B687A6892B25A61FB681B687A691A61D9
:1017680001F0CAF8386115E001F0C6F802463B6995
:10177800D31AB3F5803F09D3FB68012283F84420CC
:10178800FB68002283F8452003230DE0FB681B68F3
:101798001B697B617B6903F00103002BE4D1FB68C3
:1017A800012283F84420002318461837BD4680BD1F
:1017B80080B582B000AF78607B6893F84530012B24
:1017C80001D102231FE07B68012283F845207B6852
:1017D800022283F84420786800F0CCFB786800F097
:1017E80001FC786800F096FC786800F033FC7868B3
:1017F80000F060FC7B68012283F844207B680022AB
:1018080083F84520002318460837BD4680BD00BF31
:1018180080B582B000AF78607B6893F84530012BC3
:1018280001D102231FE07B68012283F845207B68F1
:10183800022283F84420786800F024FC786800F0DD
:1018480051FC786800F0EAFB786800F063FC78687F
:1018580000F0ACFB7B68012283F844207B680022FF
:1018680083F84520002318460837BD4680BD00BFD1
:1018780080B584B000AF786039600023FB607B6876
:1018880093F84530012B01D10223E3E07B68012264
:1018980083F845207B68022283F844203B68002BAC
:1018A80000F0B0807B681B681B68FB60FA686B4BB4
:1018B8001340FB603B681A683B685B681A433B68E7
:1018C8009B681A433B68DB681A437B689B681A432A
:1018D8003B681B691A433B685B691A437B68DB6892
:1018E8001A433B689B691A433B68DB691A433B68A8
:1018F8001B6A1A433B685B6A1A433B689B6A13433B
:10190800FA681343FB607B681B68FA681A607B6897
:101918001B681B68FB60012000F0FAFF7B681B68EE
:10192800FA681A607B681B683A68D16A3A68126B71
:1019380011433A68526B11433A68926B11433A6803
:10194800D26B11433A68126C11433A68526C1143D6
:101958003A68926C0A435A607B681B685B68FB6054
:10196800012000F0D5FF7B681B68FA685A607B6825
:101978001B683A68D26C9A607B681B683A68126D7B
:10198800DA607B681B689B69FB60FA684FF64173F5
:101998001340FB603B685B6D1A043B689B6D1A4300
:1019A8003B68DB6D1A433B681B6E1A433B685B6EF2
:1019B8001A433B689B6E1343FA681343FB607B68CA
:1019C8001B68FA689A617B681B689B69FB60012049
:1019D80000F09EFF7B681B68FA689A617B681B6849
:1019E8003A68D16E3A68126F0A43DA617B681B68FD
:1019F800DB69FB60012000F08BFF7B681B68FA68DD
:101A0800DA611EE07B681B681B68FB60FB6823F4D7
:101A18009043FB607B689A687B68DB681343FA68CD
:101A28001343FB607B681B68FA681A607B681B6855
:101A38001B68FB60012000F06BFF7B681B68FA687D
:101A48001A607B68012283F844207B68002283F8AF
:101A58004520002318461037BD4680BD0F8120FF62
:101A680080B584B000AF786039600023FB607B6884
:101A780093F84530012B01D102237BE07B680122DA
:101A880083F845207B68022283F844207B681B6822
:101A980003F5805318331B68FB60FA68374B134013
:101AA800FB603B681A683B685B681A433B689B6845
:101AB8001A433B68DB681A433B681B691A433B6857
:101AC8005B691A433B689B691A433B68DB691A43A5
:101AD8003B681B6A1343FA681343FB607B681B6807
:101AE80003F580531833FA681A607B681B6803F59E
:101AF800805318331B68FB60012000F009FF7B68E6
:101B08001B6803F580531833FA681A607B681B68F2
:101B18003A68516A3A68926A11433A68D26A11433C
:101B28003A68126B11433A68526B11433A68926BE8
:101B3800920011433A68D26B0A4342F4000203F55B
:101B480080531A607B681B6803F580531B68FB6031
:101B5800012000F0DDFE7B681B6803F58053FA68FE
:101B68001A607B68012283F844207B68002283F88E
:101B78004520002318461037BD4680BD233FDEF8B8
:101B880080B483B000AF78607B6893F84430DBB2F0
:101B980018460C37BD465DF8047B704780B5B0B079
:101BA80000AF786039600023C7F8BC303B68002B71
:101BB80007D07B684FF40062DA607B684FF480429C
:101BC8009A600023BB640023FB6400233B65002369
:101BD8007B650023BB650023FB657B68DB69002B05
:101BE80003D14FF480633B6601E000233B664FF46A
:101BF80000737B660023BB660023FB6600233B67FC
:101C080000237B670023BB674023FB670023C7F8DB
:101C180080300023C7F884300023C7F888300023B9
:101C2800C7F88C300023C7F890300023C7F89430E9
:101C38000023C7F898300023C7F89C308023C7F8E2
:101C4800A0300023C7F8A4300023C7F8A830002329
:101C5800C7F8AC300023C7F8B0300023C7F8B43059
:101C68000023C7F8B8307B681B681B68C7F8BC300E
:101C7800D7F8BC20A24B1340C7F8BC30BA6CFB6C39
:101C88001A433B6D1A437B6D1A437B689B681A4362
:101C9800BB6D1A43FB6D1A437B68DB681A433B6EC6
:101CA8001A437B6E1A43BB6E1A43FB6E1A433B6F93
:101CB8001343D7F8BC201343C7F8BC307B681B68B4
:101CC800D7F8BC201A607B681B681B68C7F8BC3053
:101CD8007B681B68D7F8BC201A607B681B68796F23
:101CE800BA6F1143FA6F1143D7F880201143D7F820
:101CF80084201143D7F888201143D7F88C2011434A
:101D0800D7F890200A435A607B681B685B68C7F85D
:101D1800BC307B681B68D7F8BC205A607B681B689E
:101D2800D7F894209A607B681B68D7F89820DA6007
:101D38007B681B689B69C7F8BC30D7F8BC204FF696
:101D480041731340C7F8BC30D7F89C301A04D7F851
:101D5800A0301A43D7F8A4301A43D7F8A8301A434A
:101D6800D7F8AC301A43D7F8B0301343D7F8BC20B3
:101D78001343C7F8BC307B681B68D7F8BC209A614E
:101D88007B681B689B69C7F8BC307B681B68D7F801
:101D9800BC209A617B681B68D7F8B410D7F8B820C4
:101DA8000A43DA617B681B68DB69C7F8BC307B686B
:101DB8001B68D7F8BC20DA610023BB604FF00073C2
:101DC800FB6000233B614FF400137B610023BB6180
:101DD8000023FB6100233B6200237B620423BB6278
:101DE8004FF00073FB624FF480333B634FF4800382
:101DF8007B634FF40053BB638023FB6300233B6486
:101E080000237B647B681B6803F5805318331B68C9
:101E1800C7F8BC30D7F8BC203A4B1340C7F8BC30E1
:101E2800BA68FB681A433B691A437B691A43BB6962
:101E38001A43FB691A433B6A1A437B6A1A43BB6A13
:101E48001343D7F8BC201343C7F8BC307B681B6822
:101E580003F580531833D7F8BC201A607B681B68D9
:101E680003F5805318331B68C7F8BC307B681B68C0
:101E780003F580531833D7F8BC201A607B681B68B9
:101E8800F96A3A6B11437A6B1143BA6B1143FA6BD7
:101E980011433A6C920011437A6C0A4342F40002EF
:101EA80003F580531A607B681B6803F580531B6831
:101EB800C7F8BC307B681B6803F58053D7F8BC2093
:101EC8001A607B689B69012B0FD17B6819687B6856
:101ED8001B6803F580531C331B6843F4803242F0BF
:101EE800400201F580531C331A607B685B6978688F
:101EF80000211A4600F008F8C037BD4680BD00BF73
:101F08000F8120FF233FDEF880B487B000AFF86070
:101F1800B9607A607B6805331B781B027A680432E3
:101F2800127813437B61BA68104B13441A467B69D5
:101F380013607B6803331B781A067B6802331B78AF
:101F48001B041A437B6801331B781B0213437A680E
:101F5800127813437B61BA68054B13441A467B69B0
:101F680013601C37BD465DF8047B70474080024013
:101F78004480024080B485B000AF78600023FB60E5
:101F88007B681B687A681268126842F008021A6057
:101F98007B681B681B68FB607B681B68FA681A60B3
:101FA8001437BD465DF8047B704700BF80B485B028
:101FB80000AF78600023FB607B681B687A68126852
:101FC800126822F008021A607B681B681B68FB60B5
:101FD8007B681B68FA681A601437BD465DF8047B95
:101FE800704700BF80B485B000AF78600023FB6005
:101FF8007B681B687A681268126842F004021A60EB
:102008007B681B681B68FB607B681B68FA681A6042
:102018001437BD465DF8047B704700BF80B485B0B7
:1020280000AF78600023FB607B681B687A681268E1
:10203800126822F004021A607B681B681B68FB6048
:102048007B681B68FA681A601437BD465DF8047B24
:10205800704700BF80B483B000AF78607B681968B0
:102068007B681B6803F5805318331B6843F40052E0
:1020780001F5805318331A600C37BD465DF8047BB0
:10208800704700BF80B483B000AF78607B68196880
:102098007B681B6803F5805318331B6823F40052D0
:1020A80001F5805318331A600C37BD465DF8047B80
:1020B800704700BF80B483B000AF78607B68196850
:1020C8007B681B6803F5805318331B6843F00202D2
:1020D80001F5805318331A600C37BD465DF8047B50
:1020E800704700BF80B483B000AF78607B68196820
:1020F8007B681B6803F5805318331B6823F00202C2
:1021080001F5805318331A600C37BD465DF8047B1F
:10211800704700BF80B485B000AF78600023FB60D3
:102128007B6819687B681B6803F5805318331B6844
:1021380043F4801201F5805318331A607B681B68DA
:1021480003F5805318331B68FB607B681B68FA68CB
:1021580003F5805318331A601437BD465DF8047BC5
:10216800704700BF80B485B000AF78607B6803F02B
:102178000703FB600C4BDB68BB60BA684FF6FF03D4
:102188001340BB60FB681A02BB68134343F0BF638C
:1021980043F40033BB60044ABB68D3601437BD46C0
:1021A8005DF8047B704700BF00ED00E080B400AF2D
:1021B800044BDB6803F4E0631B0A1846BD465DF870
:1021C800047B704700ED00E080B483B000AF0346A5
:1021D800FB71084997F907305B09FA7902F01F0289
:1021E800012000FA02F241F823200C37BD465DF8C1
:1021F800047B704700E100E080B483B000AF034681
:10220800FB71094997F907305B09FA7902F01F0257
:10221800012000FA02F2203341F823200C37BD4692
:102228005DF8047B704700BF00E100E080B483B034
:1022380000AF0346FB710C4A97F907305B0940333E
:1022480052F82330FA7902F01F02012101FA02F252
:102258001340002B01D0012300E0002318460C375F
:10226800BD465DF8047B704700E100E080B483B0B0
:1022780000AF0346FB71094997F907305B09FA7902
:1022880002F01F02012000FA02F2403341F8232035
:102298000C37BD465DF8047B704700BF00E100E0E5
:1022A80080B483B000AF0346FB71094997F9073042
:1022B8005B09FA7902F01F02012000FA02F260338A
:1022C80041F823200C37BD465DF8047B704700BFFA
:1022D80000E100E080B483B000AF0346FB710C4A14
:1022E80097F907305B09803352F82330FA7902F006
:1022F8001F02012101FA02F21340002B01D0012331
:1023080000E0002318460C37BD465DF8047B704793
:1023180000E100E080B483B000AF03463960FB7190
:1023280097F90730002B0BDA0D49FB7903F00F03FF
:10233800043B3A68D2B21201D2B20B441A7609E0D1
:10234800084997F907303A68D2B21201D2B20B4461
:1023580083F800230C37BD465DF8047B704700BF47
:1023680000ED00E000E100E080B483B000AF034678
:10237800FB7197F90730002B0ADA0D4AFB7903F055
:102388000F03043B13441B7EDBB21B09DBB208E0DE
:10239800084A97F90730134493F80033DBB21B0956
:1023A800DBB218460C37BD465DF8047B704700BFAA
:1023B80000ED00E000E100E080B489B000AFF86013
:1023C800B9607A60FB6803F00703FB61FB69C3F13E
:1023D8000703042B28BF0423BB61FB690433062BC6
:1023E80002D9FB69033B00E000237B61BB69012242
:1023F80002FA03F3013B1A46BB681A407B699A400C
:102408007B69012101FA03F3013B19467B680B4004
:10241800134318462437BD465DF8047B704700BF58
:1024280080B489B000AFF860B9607A603B60BB687F
:1024380003F00703FB61FB69C3F10703042B28BF03
:102448000423BB61FB690433062B02D9FB69033BF8
:1024580000E000237B617B69FA6822FA03F3BA691A
:10246800012101FA02F2013A1A407B681A607B697D
:10247800012202FA03F3013B1A46FB681A403B6843
:102488001A602437BD465DF8047B704780B400AFFE
:10249800BFF34F8F0549054BDB6803F4E062044B3B
:1024A8001343CB60BFF34F8FFEE700BF00ED00E0A2
:1024B8000400FA0580B582B000AF78607B68013B04
:1024C800B3F1807F01D301230FE00A4A7B68013B07
:1024D80053604FF0FF300F21FFF71CFF054B002220
:1024E8009A60044B07221A60002318460837BD4635
:1024F80080BD00BF10E000E080B582B000AF78601A
:102508007868FFF72FFE0837BD4680BD80B586B0D6
:1025180000AF0346B9607A60FB7300237B61FFF765
:1025280045FE78617869B9687A68FFF745FF024621
:1025380097F90F3018461146FFF7ECFE1837BD46DD
:1025480080BD00BF80B582B000AF0346FB7197F92C
:1025580007301846FFF738FE0837BD4680BD00BF74
:1025680080B582B000AF0346FB7197F90730184673
:10257800FFF742FE0837BD4680BD00BF80B500AFFB
:10258800FFF784FF80BD00BF80B582B000AF7860E0
:102598007868FFF78FFF034618460837BD4680BDA9
:1025A80080B500AFFFF702FE0346184680BD00BFA6
:1025B80080B584B000AFB9607A603B600346FB73B6
:1025C80097F90F301846FFF7CFFE03461846B9684B
:1025D8007A683B68FFF724FF1037BD4680BD00BF0F
:1025E80080B582B000AF0346FB7197F907301846F3
:1025F800FFF73CFE0837BD4680BD00BF80B582B0FE
:1026080000AF0346FB7197F907301846FFF70EFE37
:10261800034618460837BD4680BD00BF80B582B066
:1026280000AF0346FB7197F907301846FFF738FEED
:102638000837BD4680BD00BF80B582B000AF0346F5
:10264800FB7197F907301846FFF744FE0346184612
:102658000837BD4680BD00BF80B483B000AF786046
:102668007B68042B06D1094A084B1B6843F0040316
:10267800136005E0054A054B1B6823F0040313604B
:102688000C37BD465DF8047B704700BF10E000E0E2
:1026980080B500AF00F002F880BD00BF80B400AF85
:1026A800BD465DF8047B704780B400AF124A124BF8
:1026B8001B6843F0010313600F4B00229A600E4A17
:1026C8000D4B1B6823F0847323F4803313600A4B8B
:1026D8000A4A5A60084A084B1B6823F4802313608F
:1026E800054B0022DA60064B4FF000629A60BD4647
:1026F8005DF8047B704700BF0038024010300024AA
:1027080000ED00E080B487B000AF00233B610023F8
:102718007B610223FB600023BB6002237B60324B9A
:102728009B6803F00C033B613B69042B07D0082B23
:1027380009D0002B3FD12D4B2D4A1A603FE02B4B7F
:102748002C4A1A603BE0284B5B6803F480039B0D1E
:10275800BB60254B5B6803F03F037B60BB68002BC5
:102768000DD0244A7B68B2FBF3F21F4B596847F639
:10277800C0730B409B0903FB02F37B610CE01C4A0E
:102788007B68B2FBF3F2184B596847F6C0730B40ED
:102798009B0903FB02F37B61134B5B6803F4403333
:1027A8001B0C01335B00FB607A69FB68B2FBF3F337
:1027B8000E4A136003E00D4B0D4A1A6000BF0A4B26
:1027C8009B6803F0F0031B090B4AD35CDBB23B6147
:1027D800064B1A683B6922FA03F3044A13601C3754
:1027E800BD465DF8047B70470038024008000020B1
:1027F8000024F40000127A000C00002080B500AF1D
:102808000B4A0B4B1B6843F400731360084A084BD0
:102818001B6843F4806313600320FFF76DFE0F20ED
:1028280000F040F801F034FC0023184680BD00BFDA
:10283800003C024080B500AF134B4FF0FF321A62E4
:10284800114B00221A62104B4FF0FF325A620E4BA6
:1028580000225A620C4B4FF0FF321A610A4B0022D9
:102868001A61094B4FF0FF325A61074B00225A6137
:10287800054B4FF0FF329A61034B00229A6100F03A
:102888000BF80023184680BD0038024080B400AF22
:10289800BD465DF8047B704780B400AFBD465DF867
:1028A800047B704780B582B000AF786001F09CF976
:1028B8000246094BA3FB02239B091846FFF764FE57
:1028C8004FF0FF3079680022FFF720FE00231846FA
:1028D8000837BD4680BD00BFD34D621080B400AF3D
:1028E800044B1B680133034A1360BD465DF8047B43
:1028F800704700BFA004002080B400AF034B1B68E2
:102908001846BD465DF8047B704700BFA004002050
:1029180080B584B000AF7860FFF7EEFFF86000BFC5
:10292800FFF7EAFF0246FB68D21A7B689A42F7D99A
:102938001037BD4680BD00BF80B400AF044A044BC9
:102948001B6823F002031360BD465DF8047B7047E3
:1029580010E000E080B400AF044A044B1B6843F069
:1029680002031360BD465DF8047B704710E000E089
:1029780080B400AF024B1846BD465DF8047B704733
:102988000000030180B400AF034B1B681B0C184602
:10299800BD465DF8047B7047002004E080B400AFBA
:1029A800044B1B68C3F30B031846BD465DF8047B54
:1029B800704700BF002004E080B400AF044A044B15
:1029C8005B6843F001035360BD465DF8047B7047C4
:1029D800002004E080B400AF044A044B5B6823F095
:1029E80001035360BD465DF8047B7047002004E096
:1029F80080B400AF044A044B5B6843F002035360A1
:102A0800BD465DF8047B7047002004E080B400AF49
:102A1800044A044B5B6823F002035360BD465DF82B
:102A2800047B7047002004E080B400AF044A044BE4
:102A38005B6843F004035360BD465DF8047B704750
:102A4800002004E080B400AF044A044B5B6823F024
:102A580004035360BD465DF8047B7047002004E022
:102A680080B485B000AF0123FB60FB6893FAA3F341
:102A7800BB60BB687B607B68B3FA83F33B603B68F1
:102A8800DBB29B001A46054B13441A460123136018
:102A98001437BD465DF8047B704700BF0004274229
:102AA80080B485B000AF0123FB60FB6893FAA3F301
:102AB800BB60BB687B607B68B3FA83F33B603B68B1
:102AC800DBB29B001A46054B13441A4600231360D9
:102AD8001437BD465DF8047B704700BF00042742E9
:102AE80080B400AFBD465DF8047B704780B400AF8A
:102AF800FEE700BF80B400AFFEE700BF80B400AFC0
:102B0800FEE700BF80B400AFFEE700BF80B400AFAF
:102B1800BD465DF8047B704780B400AFBD465DF8E4
:102B2800047B704780B400AFBD465DF8047B7047F6
:102B380080B500AFFFF7D2FE80BD00BF80B489B07A
:102B480000AF7860396000237B6100233B6100237C
:102B5800BB610023FB616BE1FB69012202FA03F30D
:102B68007B613B681A687B6913403B613A697B6902
:102B78009A4240F05A813B685B68022B03D03B685D
:102B88005B68122B22D1FB69DA087B68083253F89C
:102B98002230BB61FB6903F007039B001A460F2331
:102BA8009340DB43BA691340BB613B681B69FA6910
:102BB80002F0070292009340BA691343BB61FB69B4
:102BC800DA087B680832B96943F822107B681B6809
:102BD800BB61FB695B001A4603239340DB43BA6978
:102BE8001340BB613B685B6803F00303FA6952005A
:102BF8009340BA691343BB617B68BA691A603B6842
:102C08005B68012B0BD03B685B68022B07D03B68E5
:102C18005B68112B03D03B685B68122B2FD17B6854
:102C28009B68BB61FB695B001A4603239340DB4347
:102C3800BA691340BB613B68DB68FA69520093408C
:102C4800BA691343BB617B68BA699A607B685B6841
:102C5800BB61FB69012202FA03F3DB43BA69134043
:102C6800BB613B685B6803F010031A09FB6902FA51
:102C780003F3BA691343BB617B68BA695A607B681E
:102C8800DB68BB61FB695B001A4603239340DB43A7
:102C9800BA691340BB613B689B68FA69520093406C
:102CA800BA691343BB617B68BA69DA603B685B68E1
:102CB80003F08053002B00F0B880624A614B5B6CD4
:102CC80043F4804353645F4B5B6C03F48043FB60C5
:102CD800FB685D4AFB699B08023352F82330BB61ED
:102CE800FB6903F003039B001A460F239340DB4361
:102CF800BA691340BB617B68544A934231D07B6800
:102D0800534A93422BD07B68524A934225D07B6822
:102D1800514A93421FD07B68504A934219D07B682E
:102D28004F4A934213D07B684E4A93420DD07B683A
:102D38004D4A934207D07B684C4A934201D10823FD
:102D480010E009230EE007230CE006230AE0052320
:102D580008E0042306E0032304E0022302E0012341
:102D680000E00023FA6902F0030292009340BA6976
:102D78001343BB613449FB699B080233BA6941F8C4
:102D880023203B4B1B68BB613B69DB43BA6913409B
:102D9800BB613B685B6803F48033002B03D0BA69DE
:102DA8003B691343BB61324ABB691360304B5B68B4
:102DB800BB613B69DB43BA691340BB613B685B6835
:102DC80003F40033002B03D0BA693B691343BB619A
:102DD800274ABB695360264B9B68BB613B69DB4351
:102DE800BA691340BB613B685B6803F48013002B2E
:102DF80003D0BA693B691343BB611D4ABB69936041
:102E08001B4BDB68BB613B69DB43BA691340BB61A1
:102E18003B685B6803F40013002B03D0BA693B6975
:102E28001343BB61124ABB69D360FB690133FB6181
:102E3800FB690F2B7FF690AE2437BD465DF8047B07
:102E4800704700BF003802400038014000000240CF
:102E58000004024000080240000C0240001002403A
:102E68000014024000180240001C024000200240EA
:102E7800003C014080B487B000AF7860396000231F
:102E88003B610023FB600023BB6000237B61D4E02F
:102E98007B69012202FA03F33B613A683B691340FC
:102EA800FB60FA683B699A4240F0C4807B681A6804
:102EB8007B695B00194603238B40DB431A407B6820
:102EC8001A607B69DA087B69D9087B68083153F88E
:102ED80021107B6903F007039B0018460F238340EA
:102EE800DB4319407B68083243F822107B689A68F4
:102EF8007B695B00194603238B40DB431A407B68E0
:102F08009A607B685A687B69012101FA03F3DB4305
:102F18001A407B685A607B68DA687B695B001946EF
:102F280003238B40DB431A407B68DA60474A7B699E
:102F38009B08023352F82330BB607B6903F003031C
:102F48009B001A460F239340BA681340BB607B6806
:102F58003F4A934231D07B683E4A93422BD07B68EC
:102F68003D4A934225D07B683C4A93421FD07B68F8
:102F78003B4A934219D07B683A4A934213D07B6804
:102F8800394A93420DD07B68384A934207D07B6810
:102F9800374A934201D1082310E009230EE00723A2
:102FA8000CE006230AE0052308E0042306E00323D7
:102FB80004E0022302E0012300E000237A6902F022
:102FC8000302920003FA02F2BB689A4232D17B698B
:102FD80003F003039B001A460F239340BB601B4872
:102FE8007B699B0819497A699208023251F82210C4
:102FF800BA68D2430A40023340F823201D491D4BCA
:103008001A68FB68DB4313400B601A49194B5A686E
:10301800FB68DB4313404B601649164B9A68FB6804
:10302800DB4313408B601349124BDA68FB68DB43C0
:103038001340CB607B6901337B617B690F2B7FF683
:1030480027AF1C37BD465DF8047B70470038014048
:10305800000002400004024000080240000C024048
:10306800001002400014024000180240001C0240F8
:1030780000200240003C014080B485B000AF786079
:103088000B467B807B681A697B881340002B02D033
:103098000123FB7301E00023FB73FB7B1846143705
:1030A800BD465DF8047B704780B483B000AF78609C
:1030B8000B467B8013467B707B78002B03D07A8885
:1030C8007B689A6103E07B881A047B689A610C37F5
:1030D800BD465DF8047B704780B483B000AF78606C
:1030E8000B467B807B685A697B885A407B685A61AB
:1030F8000C37BD465DF8047B704700BF80B485B0CF
:1031080000AF78600B467B804FF48033FB607A8891
:10311800FB681343FB60FA687B68DA617A887B682E
:10312800DA61FA687B68DA617B68DB69FB607B6877
:10313800DB6903F48033002B01D0002300E0012376
:1031480018461437BD465DF8047B704780B582B0D9
:1031580000AF0346FB80084B5A69FB881340002BDD
:1031680006D0054AFB885361FB88184600F006F82C
:103178000837BD4680BD00BF003C014080B483B025
:1031880000AF0346FB800C37BD465DF8047B7047F3
:1031980080B400AF1A4A1A4B1B6843F081031360CE
:1031A800174B00229A60164A154B1B6823F0A1633F
:1031B80023F480331360124B00225A601049104BDD
:1031C8005A68104B13434B600D4B0022C3F8842000
:1031D8000B4A0B4BD3F8843043F0005343F440536D
:1031E800C2F88430064A064B1B6823F48023136018
:1031F800034B0022DA60BD465DF8047B704700BFD0
:10320800003802401030000480B598B000AF7860F4
:103218000023FB657B681B6803F00103002B6AD061
:10322800A64B9B6803F00C03042B0BD0A34B9B68A5
:1032380003F00C03082B12D1A04B5B6803F4800346
:10324800002B0CD09D4B1B6803F40033002B05D0DA
:103258007B685B68002B01D1012324E24BE0984B8B
:1032680000221A70FFF748FBF8650AE0FFF744FBF5
:103278000246FB6DD31A41F28832934201D90323E7
:1032880011E28E4B1B6803F40033002BEED18C4AFD
:103298007B685B68DBB213707B685B68002B15D0BA
:1032A800FFF72AFBF8650AE0FFF726FB0246FB6DED
:1032B800D31A41F28832934201D90323F3E17F4BB9
:1032C8001B6803F40033002BEED014E0FFF714FB67
:1032D800F8650AE0FFF710FB0246FB6DD31A41F2CE
:1032E8008832934201D90323DDE1744B1B6803F450
:1032F8000033002BEED17B681B6803F00203002B20
:103308007FD06E4B9B6803F00C03002B0BD06B4BEC
:103318009B6803F00C03082B2AD1684B5B6803F405
:103328008003002B24D1654B1B6803F00203002B9C
:1033380005D07B68DB68012B01D00123B3E15F482E
:103348005E4B1B6823F0F8027B681B69F821B9659E
:10335800B96D91FAA1F17965796D3965396DB1FA6F
:1033680081F1F964F96CC9B28B401343036048E0FA
:103378007B68DB68002B2ED0524B01221A60FFF7C6
:10338800BBFAF86508E0FFF7B7FA0246FB6DD31AF7
:10339800642B01D9032386E1484B1B6803F0020321
:1033A800002BF0D04548454B1B6823F0F8027B689A
:1033B8001B69F821B964B96C91FAA1F17964796C47
:1033C8003964396CB1FA81F1F963F96BC9B28B4090
:1033D8001343036015E03B4B00221A60FFF78CFA99
:1033E800F86508E0FFF788FA0246FB6DD31A642BEC
:1033F80001D9032357E1314B1B6803F00203002B6B
:10340800F0D17B681B6803F00803002B30D07B6881
:103418005B69002B16D02C4B01221A60FFF76CFA5F
:10342800F86508E0FFF768FA0246FB6DD31A642BCB
:1034380001D9032337E1214B5B6F03F00203002B13
:10344800F0D015E0204B00221A60FFF755FAF86516
:1034580008E0FFF751FA0246FB6DD31A642B01D935
:10346800032320E1154B5B6F03F00203002BF0D11F
:103478007B681B6803F00403002B7BD00F4A0F4BBB
:103488001B6C43F0805313640C4B1B6C03F080538C
:10349800BB60BB680D4A0D4B1B6843F48073136017
:1034A800FFF72AFAF86513E0FFF726FA0246FB6DE4
:1034B800D31A642B0CD90323F5E000BF003802406F
:1034C8000238024000004742800E47420070004028
:1034D800774B1B6803F48073002BE5D0754B0022F3
:1034E8001A70FFF709FAF8650AE0FFF705FA0246CD
:1034F800FB6DD31A41F28832934201D90323D2E0FB
:103508006D4B1B6F03F00203002BEED1694A7B68F9
:103518009B68DBB213707B689B68002B15D0FFF7A4
:10352800EBF9F8650AE0FFF7E7F90246FB6DD31AF5
:1035380041F28832934201D90323B4E05E4B1B6FFA
:1035480003F00203002BEED014E0FFF7D5F9F8657D
:103558000AE0FFF7D1F90246FB6DD31A41F288322F
:10356800934201D903239EE0534B1B6F03F00203E0
:10357800002BEED17B689B69002B00F093804E4BAB
:103588009B6803F00C03082B00F08A807B689B691A
:10359800022B6ED1494B00221A60FFF7ADF9F8658E
:1035A80008E0FFF7A9F90246FB6DD31A642B01D98D
:1035B800032378E0404B1B6803F00073002BF0D125
:1035C8003D487B68DA697B681B6A1A437B685B6ADB
:1035D80047F6C071B963B96B91FAA1F17963796B58
:1035E8003963396BB1FA81F1F962F96AC9B28B4072
:1035F8001A437B689B6A5B08013B4FF44031B96210
:10360800B96A91FAA1F17962796A3962396AB1FACB
:1036180081F1F961F969C9B28B401A437B68DB6AA9
:103628004FF07061B961B96991FAA1F1796179696D
:1036380039613969B1FA81F1F960F968C9B28B4029
:10364800134343601D4B01221A60FFF755F9F865D3
:1036580008E0FFF751F90246FB6DD31A642B01D934
:10366800032320E0144B1B6803F00073002BF0D0F9
:1036780018E0124B00221A60FFF73EF9F86508E0DF
:10368800FFF73AF90246FB6DD31A642B01D90323DD
:1036980009E0094B1B6803F00073002BF0D101E02F
:1036A800012300E0002318466037BD4680BD00BFF7
:1036B8000070004070380240003802406000474205
:1036C80080B584B000AF786039600023FB60A24BFE
:1036D8001B6803F00F023B689A4280F0A8809E4B5B
:1036E8003A68D2B21A709C4B1B6803F00F023B6811
:1036F8009A4201D0012369E17B681B6803F0020349
:10370800002B08D09549954B9B6823F0F0027B6805
:103718009B6813438B607B681B6803F00103002BD5
:1037280000F031817B685B68012B07D18B4B1B68EC
:1037380003F40033002B1AD1012347E17B685B684F
:10374800022B03D07B685B68032B08D1834B1B6873
:1037580003F00073002B01D1012337E107E07F4B11
:103768001B6803F00203002B01D101232EE17B49E2
:103778007A4B9B6823F003027B685B6813438B607A
:10378800FFF7BAF8F8607B685B68012B12D10AE092
:10379800FFF7B2F80246FB68D31A41F28832934227
:1037A80001D9032312E16D4B9B6803F00C03042B32
:1037B800EED1E8E07B685B68022B12D10AE0FFF7E4
:1037C8009BF80246FB68D31A41F28832934201D92A
:1037D8000323FBE0614B9B6803F00C03082BEED13D
:1037E800D1E07B685B68032B0ED10AE0FFF784F811
:1037F8000246FB68D31A41F28832934201D9032367
:10380800E4E0564B9B68F1E70AE0FFF775F80246DB
:10381800FB68D31A41F28832934201D90323D5E0D9
:103828004E4B9B6803F00C03002BEED1ABE07B689A
:103838001B6803F00203002B08D04849474B9B68DC
:1038480023F0F0027B689B6813438B607B681B68DE
:1038580003F00103002B00F089807B685B68012B73
:1038680007D13E4B1B6803F40033002B1AD1012308
:10387800ACE07B685B68022B03D07B685B68032B3A
:1038880008D1364B1B6803F00073002B01D10123CC
:103898009CE007E0314B1B6803F00203002B01D1C9
:1038A800012393E02D492D4B9B6823F003027B688D
:1038B8005B6813438B60FFF71FF8F8607B685B68F1
:1038C800012B12D10AE0FFF717F80246FB68D31A5A
:1038D80041F28832934201D9032377E01F4B9B685A
:1038E80003F00C03042BEED140E07B685B68022BED
:1038F80012D10AE0FFF700F80246FB68D31A41F23A
:103908008832934201D9032360E0144B9B6803F08B
:103918000C03082BEED129E07B685B68032B0ED1E2
:103928000AE0FEF7E9FF0246FB68D31A41F2883243
:10393800934201D9032349E0084B9B68F1E70FE064
:10394800FEF7DAFF0246FB68D31A41F28832934247
:1039580006D903233AE000BF003C02400038024089
:103968001C4B9B6803F00C03002BE9D11A4B3A68F7
:10397800D2B21A70184B1B6803F00F023B689A42C8
:1039880001D0012322E07B681B6803F00403002BAD
:1039980008D010490F4B9B6823F4E0527B68DB6822
:1039A80013438B607B681B6803F00803002B09D066
:1039B8000849084B9B6823F460427B681B69DB005D
:1039C80013438B600F20FEF76DFF00231846103756
:1039D800BD4680BD00380240003C024080B58CB036
:1039E80000AFF860B9607A60FB68002B27D1294ADC
:1039F800284B1B6B43F001031363264B1B6B03F02F
:103A08000103BB61BB694FF48073FB6102233B6216
:103A18000323BB6200237B620023FB6207F11C03C4
:103A28001D481946FFF78AF81A481A4B9B6823F075
:103A3800EC62B9687B680B431343836027E0154A3F
:103A4800144B1B6B43F004031363124B1B6B03F003
:103A580004037B617B694FF40073FB6102233B62C3
:103A68000323BB6200237B620023FB6207F11C0374
:103A78000A481946FFF762F80648064B9B6823F088
:103A880078427B68D900BB680B43134383603037A7
:103A9800BD4680BD003802400000024000080240D8
:103AA80080B400AF034B01221A60BD465DF8047B69
:103AB800704700BF4C00474280B400AF034B002260
:103AC8001A60BD465DF8047B704700BF4C00474252
:103AD80080B491B000AF00237B630023FB63002315
:103AE8003B630023BB633D4B9B6803F00C03042B33
:103AF80006D0082B07D0002B66D1394BBB6366E094
:103B0800384BBB6363E0354B5B6803F03F037B6373
:103B1800324B5B6803F48003002B1CD0314A7B6B6B
:103B2800B2FBF3F22D4B596847F6C0730B4047F6CA
:103B3800C071F962F96A91FAA1F1B962B96A796258
:103B4800796AB1FA81F13962396AC9B2CB4003FBAB
:103B580002F3FB631BE0224A7B6BB2FBF3F21F4BC1
:103B6800596847F6C0730B4047F6C071F961F969A7
:103B780091FAA1F1B961B96979617969B1FA81F10B
:103B880039613969C9B2CB4003FB02F3FB63134BBC
:103B98005B6803F440334FF44032FA60FA6892FAF3
:103BA800A2F2BA60BA687A607A68B2FA82F23A60C7
:103BB8003A68D2B2D34001335B003B63FA6B3B6B8C
:103BC800B2FBF3F3BB6302E0054BBB6300BFBB6B07
:103BD80018464437BD465DF8047B704700380240FC
:103BE8000024F40000127A0080B584B000AFFFF71B
:103BF8006FFF01460F4B9B6803F0F003F022FA6059
:103C0800FA6892FAA2F2BA60BA687A607A68B2FA86
:103C180082F23A603A68D2B2D340074AD35C21FABA
:103C280003F3064A1360054B1B6818461037BD4658
:103C380080BD00BF00380240384600080800002058
:103C480080B584B000AFFFF7CFFF01460D4B9B68EE
:103C580003F4E0534FF4E052FA60FA6892FAA2F2E1
:103C6800BA60BA687A607A68B2FA82F23A603A68F8
:103C7800D2B2D340044AD35C21FA03F31846103772
:103C8800BD4680BD003802403846000880B584B083
:103C980000AFFFF7A9FF01460D4B9B6803F4604393
:103CA8004FF46042FA60FA6892FAA2F2BA60BA680F
:103CB8007A607A68B2FA82F23A603A68D2B2D3404D
:103CC800044AD35C21FA03F318461037BD4680BD79
:103CD800003802403846000880B493B000AF7860DE
:103CE8007B680F221A60624B1B6803F48023002B49
:103CF80003D07B6805225A600CE05D4B1B6803F417
:103D08008033002B03D07B6801225A6002E07B6875
:103D180000225A60564B1B6803F00103002B03D0A6
:103D28007B680122DA6002E07B680022DA60504B8F
:103D38001B6803F0F803F8227A647A6C92FAA2F20C
:103D48003A643A6CFA63FA6BB2FA82F2BA63BA6B03
:103D5800D2B223FA02F27B681A61454B1B6F03F05B
:103D68000403002B03D07B6805229A600CE0404BCB
:103D78001B6F03F00103002B03D07B6801229A60BC
:103D880002E07B6800229A60394B5B6F03F0010305
:103D9800002B03D07B6801225A6102E07B68002275
:103DA8005A61334B1B6803F08073002B03D07B6888
:103DB80002229A6102E07B6801229A612C4B5B68BF
:103DC80003F480027B68DA61294B5B6803F03F02E9
:103DD8007B681A62264B5A6847F6C073134047F649
:103DE800C0727A637A6B92FAA2F23A633A6BFA6219
:103DF800FA6AB2FA82F2BA62BA6AD2B223FA02F262
:103E08007B685A621A4B5B6803F4403303F58033CE
:103E18005B004FF440327A627A6A92FAA2F23A620E
:103E28003A6AFA61FA69B2FA82F2BA61BA69D2B246
:103E380023FA02F27B689A620D4B5B6803F07063A9
:103E48004FF070627A617A6992FAA2F23A613A693D
:103E5800FA60FA68B2FA82F2BA60BA68D2B223FAA1
:103E680002F27B68DA624C37BD465DF8047B704726
:103E78000038024080B483B000AF786039607B6856
:103E88000F221A60114B9B6803F003027B685A608B
:103E98000E4B9B6803F0F0027B689A600B4B9B68A3
:103EA80003F4E0527B68DA60084B9B6803F46043D4
:103EB800DA087B681A61064B1B6803F00F023B683F
:103EC8001A600C37BD465DF8047B70470038024025
:103ED800003C024080B500AF054BDB6803F080036F
:103EE800002B04D000F008F8024B80221A7080BD25
:103EF800003802400E38024080B400AFBD465DF87D
:103F0800047B704780B584B000AF0023FB600023BA
:103F1800BB6000237B6000233B60FCF75FF9FCF784
:103F280083F9FCF7A7F9FCF7CBF9FCF7EFF900F0F8
:103F380027F800F07FF810484FF480510122FFF76E
:103F4800B3F80E480121FFF797F80346012B11D16A
:103F580009484FF400510122FFF7A6F800F04EF986
:103F680000F082F900F0B2F903484FF40041012251
:103F7800FFF79AF8DFE700BF000C0240000002409C
:103F880080B594B000AF284A274B1B6C43F0805390
:103F98001364254B1B6C03F08053BB60BB68234A3A
:103FA800224B1B6823F480431360204B1B6803F4E7
:103FB80080437B607B6802233B620123FB62102302
:103FC8003B630223BB630023FB6308233B64C823D2
:103FD8007B640423BB640423FB6407F120031846B5
:103FE800FFF712F90723FB6002233B6180237B6103
:103FF8004FF48053BB610023FB6107F10C031846A3
:104008000121FFF75DFBFFF7EFFD0246084BA3FB1D
:1040180002239B091846FEF7B7FA0420FEF71CFB9B
:104028005037BD4680BD00BF0038024000700040D8
:10403800D34D621080B485B000AF144A134B1B6B8C
:1040480043F004031363114B1B6B03F00403FB6081
:10405800FB680E4A0D4B1B6B43F0010313630B4BBC
:104068001B6B03F00103BB60BB68084A074B1B6B63
:1040780043F002031363054B1B6B03F002037B60E1
:104088007B681437BD465DF8047B704700380240F2
:1040980080B500AF0320FEF72FFA4FF0FF30002164
:1040A8000022FEF733FA80BD80B58AB000AF786091
:1040B8007B681B682D4A934254D12D4A2C4B1B6BAD
:1040C80043F0007313632A4B1B6B03F000733B61CF
:1040D8003B69274A264B1B6B43F080631363244BD1
:1040E8001B6B03F08063FB60FB68214A204B1B6B52
:1040F80043F0006313631E4B1B6B03F00063BB604C
:10410800BB680B237B620223BB6186237B61002390
:10411800FB6103233B6207F1140316481946FEF7B7
:104128000DFD0B237B620223BB614FF460537B615F
:104138000023FB6103233B6207F114030E48194671
:10414800FEF7FCFC0B237B620223BB6132237B61FD
:104158000023FB6103233B6207F114030748194658
:10416800FEF7ECFC2837BD4680BD00BF008002404A
:1041780000380240000002400004024000080240EB
:1041880080B582B000AF78607B681B68124A9342A2
:104198001ED1124A114B1B6B23F0806313630F4A25
:1041A8000E4B1B6B23F0006313630C4A0B4B1B6B0A
:1041B80023F0007313630A483221FEF75BFE0948B7
:1041C8008621FEF757FE08484FF46051FEF752FE6D
:1041D8000837BD4680BD00BF00800240003802405D
:1041E80000080240000002400004024080B500AF11
:1041F8000148FDF78BF980BDA404002080B483B08A
:1042080000AF00233B7080237B70E123BB70002349
:10421800FB7000233B7100237B71114B114A1A601C
:104228000F4B01225A600E4B4FF480429A600C4BA0
:104238004FF40062DA600A4B01221A82084A3B46B0
:104248005361074B00229A61054B0122DA61044B46
:104258004FF400021A620C37BD465DF8047B7047C4
:10426800A40400200080024080B5ADF5425D88B00E
:1042780000AF1548FCF7CCFC0346012B02D11248CD
:10428800FCF746FE07F53E5202F1200207F1200333
:10429800203B0D4811461A460423FCF751FE07F54A
:1042A800405202F1200207F5BF53103B0648114661
:1042B8001A460423FCF7AEFE0348FDF779FA07F522
:1042C80042572037BD4680BDA404002090B589B070
:1042D80000AF0023FB61114BDB6A9B68BB61104B8D
:1042E8003C1D0FCB84E80F003B1D7B61B8697969E1
:1042F800102200F02DF81023FB610848F969FCF73B
:104308000BFF0346002B05D106484FF480410122DC
:10431800FEF7CAFE2437BD4690BD00BFA4040020A6
:1043280048460008000C024080B500AF0648FCF77C
:10433800DDFF0346002B05D104484FF4004101225C
:10434800FEF7B2FE80BD00BFA4040020000C0240AE
:10435800844641EA000313F003036DD1403A41D388
:1043680051F8043B40F8043B51F8043B40F8043B47
:1043780051F8043B40F8043B51F8043B40F8043B37
:1043880051F8043B40F8043B51F8043B40F8043B27
:1043980051F8043B40F8043B51F8043B40F8043B17
:1043A80051F8043B40F8043B51F8043B40F8043B07
:1043B80051F8043B40F8043B51F8043B40F8043BF7
:1043C80051F8043B40F8043B51F8043B40F8043BE7
:1043D80051F8043B40F8043B51F8043B40F8043BD7
:1043E800403ABDD2303211D351F8043B40F8043B77
:1043F80051F8043B40F8043B51F8043B40F8043BB7
:1044080051F8043B40F8043B103AEDD20C3205D386
:1044180051F8043B40F8043B043AF9D2043208D07E
:10442800D2071CBF11F8013B00F8013B01D30B88F0
:1044380003806046704700BF082A13D38B078DD0CE
:1044480010F003038AD0C3F10403D21ADB071CBFA0
:1044580011F8013B00F8013B80D331F8023B20F80A
:10446800023B7BE7043AD9D3013A11F8013B00F843
:10447800013BF9D20B7803704B7843708B788370CB
:104488006046704770B50F4E0F4D761BB61018BFBB
:10449800002405D0013455F8043B9847A642F9D1C9
:1044A8000A4E0B4D761B00F0B7F8B61018BF002463
:1044B80006D0013455F8043B9847A642F9D170BD9F
:1044C80070BD00BF604600086046000868460008E6
:1044D80060460008024B13B1024800F005B8704767
:1044E80000000000FD440008014600200246034683
:1044F80000F016B838B5084B084DED1AAC1018BFC7
:10450800ED1805D0013C55F8043D9847002CF9D129
:10451800BDE8384000F086B8684600086C460008D8
:104528002DE9F047254C2568D5F8484106468846C8
:1045380092469946CCB360681F2818DC431C7EB1AC
:1045480004EB80050121C5F888A0D4F8887101FA28
:1045580000F21743022EC4F88871C5F808911ED0DE
:104568000230636044F820800020BDE8F087144BD7
:1045780003B34FF4C870AFF300800446D0B1D5F848
:104588004831002780E88800C5F8484138460123AB
:10459800C4F88871C4F88C71002EE1D0D0E7D4F843
:1045A8008C110A43C4F88C21DAE705F5A674C5F81E
:1045B8004841C0E74FF0FF30BDE8F0875C4600088F
:1045C80000000000DFF834D0002103E00C4B5B58FA
:1045D800435004310B480C4B42189A42F6D30B4A0D
:1045E80002E0002342F8043B094B9A42F9D3FEF754
:1045F8005BF8FFF747FFFFF785FC7047FFFF0120D7
:104608006C460008000000204804002048040020F0
:10461800EC040020FEE70000F8B500BFF8BC08BCB9
:104628009E467047F8B500BFF8BC08BC9E46704768
:104638000000000001020304010203040607080940
:104648000100000000000000010000000000000060
:084658004300000020000020D7
:08466000DD440008AD01000873
:0446680089010008BC
:10466C0014000000140000000024F40000000000FE
:10467C000000000001020304060708090000000006
:10468C00000000000C03002074030020DC03002059
:10469C00000000000000000000000000000000000E
:1046AC0000000000000000000000000000000000FE
:1046BC000000000058460008000000000000000048
:1046CC0000000000000000000000000000000000DE
:1046DC0000000000000000000000000000000000CE
:1046EC0000000000000000000000000000000000BE
:1046FC0000000000000000000000000000000000AE
:10470C00000000000000000000000000000000009D
:10471C00000000000000000000000000000000008D
:10472C00000000000000000001000000000000007C
:10473C000E33CDAB34126DE6ECDE05000B00000041
:10474C00000000000000000000000000000000005D
:10475C00000000000000000000000000000000004D
:10476C00000000000000000000000000000000003D
:10477C00000000000000000000000000000000002D
:04000005080045CDDD
:00000001FF
